{"abi":[{"type":"constructor","inputs":[{"name":"_rewardToken","type":"address","internalType":"address"}],"stateMutability":"nonpayable"},{"type":"function","name":"balanceOf","inputs":[{"name":"account","type":"address","internalType":"address"},{"name":"id","type":"uint256","internalType":"uint256"}],"outputs":[{"name":"","type":"uint256","internalType":"uint256"}],"stateMutability":"view"},{"type":"function","name":"balanceOfBatch","inputs":[{"name":"accounts","type":"address[]","internalType":"address[]"},{"name":"ids","type":"uint256[]","internalType":"uint256[]"}],"outputs":[{"name":"","type":"uint256[]","internalType":"uint256[]"}],"stateMutability":"view"},{"type":"function","name":"exists","inputs":[{"name":"id","type":"uint256","internalType":"uint256"}],"outputs":[{"name":"","type":"bool","internalType":"bool"}],"stateMutability":"view"},{"type":"function","name":"found","inputs":[{"name":"_secretHash","type":"address","internalType":"address"},{"name":"_secret","type":"string","internalType":"string"}],"outputs":[],"stateMutability":"nonpayable"},{"type":"function","name":"foundNumber","inputs":[],"outputs":[{"name":"","type":"uint256","internalType":"uint256"}],"stateMutability":"view"},{"type":"function","name":"isApprovedForAll","inputs":[{"name":"account","type":"address","internalType":"address"},{"name":"operator","type":"address","internalType":"address"}],"outputs":[{"name":"","type":"bool","internalType":"bool"}],"stateMutability":"view"},{"type":"function","name":"itemImplementation","inputs":[],"outputs":[{"name":"","type":"address","internalType":"contract Item"}],"stateMutability":"view"},{"type":"function","name":"items","inputs":[{"name":"","type":"address","internalType":"address"}],"outputs":[{"name":"","type":"address","internalType":"address"}],"stateMutability":"view"},{"type":"function","name":"itemsCount","inputs":[],"outputs":[{"name":"","type":"uint256","internalType":"uint256"}],"stateMutability":"view"},{"type":"function","name":"lost","inputs":[{"name":"_secretHash","type":"address","internalType":"address"},{"name":"_rewardAmount","type":"uint256","internalType":"uint256"},{"name":"_geoLocation","type":"string","internalType":"string"}],"outputs":[],"stateMutability":"nonpayable"},{"type":"function","name":"lostNumber","inputs":[],"outputs":[{"name":"","type":"uint256","internalType":"uint256"}],"stateMutability":"view"},{"type":"function","name":"owner","inputs":[],"outputs":[{"name":"","type":"address","internalType":"address"}],"stateMutability":"view"},{"type":"function","name":"registerItem","inputs":[{"name":"_secretHash","type":"address","internalType":"address"},{"name":"_comment","type":"string","internalType":"string"}],"outputs":[],"stateMutability":"nonpayable"},{"type":"function","name":"registeredNumber","inputs":[],"outputs":[{"name":"","type":"uint256","internalType":"uint256"}],"stateMutability":"view"},{"type":"function","name":"renounceOwnership","inputs":[],"outputs":[],"stateMutability":"nonpayable"},{"type":"function","name":"returned","inputs":[{"name":"_secretHash","type":"address","internalType":"address"}],"outputs":[],"stateMutability":"nonpayable"},{"type":"function","name":"returnedNumber","inputs":[],"outputs":[{"name":"","type":"uint256","internalType":"uint256"}],"stateMutability":"view"},{"type":"function","name":"rewardToken","inputs":[],"outputs":[{"name":"","type":"address","internalType":"address"}],"stateMutability":"view"},{"type":"function","name":"rewardsDistributed","inputs":[],"outputs":[{"name":"","type":"uint256","internalType":"uint256"}],"stateMutability":"view"},{"type":"function","name":"safeBatchTransferFrom","inputs":[{"name":"from","type":"address","internalType":"address"},{"name":"to","type":"address","internalType":"address"},{"name":"ids","type":"uint256[]","internalType":"uint256[]"},{"name":"amounts","type":"uint256[]","internalType":"uint256[]"},{"name":"data","type":"bytes","internalType":"bytes"}],"outputs":[],"stateMutability":"nonpayable"},{"type":"function","name":"safeTransferFrom","inputs":[{"name":"from","type":"address","internalType":"address"},{"name":"to","type":"address","internalType":"address"},{"name":"id","type":"uint256","internalType":"uint256"},{"name":"amount","type":"uint256","internalType":"uint256"},{"name":"data","type":"bytes","internalType":"bytes"}],"outputs":[],"stateMutability":"nonpayable"},{"type":"function","name":"setApprovalForAll","inputs":[{"name":"operator","type":"address","internalType":"address"},{"name":"approved","type":"bool","internalType":"bool"}],"outputs":[],"stateMutability":"nonpayable"},{"type":"function","name":"supportsInterface","inputs":[{"name":"interfaceId","type":"bytes4","internalType":"bytes4"}],"outputs":[{"name":"","type":"bool","internalType":"bool"}],"stateMutability":"view"},{"type":"function","name":"thumbDown","inputs":[{"name":"account","type":"address","internalType":"address"}],"outputs":[],"stateMutability":"nonpayable"},{"type":"function","name":"thumbUp","inputs":[{"name":"account","type":"address","internalType":"address"}],"outputs":[],"stateMutability":"nonpayable"},{"type":"function","name":"totalSupply","inputs":[],"outputs":[{"name":"","type":"uint256","internalType":"uint256"}],"stateMutability":"view"},{"type":"function","name":"totalSupply","inputs":[{"name":"id","type":"uint256","internalType":"uint256"}],"outputs":[{"name":"","type":"uint256","internalType":"uint256"}],"stateMutability":"view"},{"type":"function","name":"transferOwnership","inputs":[{"name":"newOwner","type":"address","internalType":"address"}],"outputs":[],"stateMutability":"nonpayable"},{"type":"function","name":"trust","inputs":[{"name":"","type":"address","internalType":"address"}],"outputs":[{"name":"","type":"int256","internalType":"int256"}],"stateMutability":"view"},{"type":"function","name":"uri","inputs":[{"name":"tokenId","type":"uint256","internalType":"uint256"}],"outputs":[{"name":"data","type":"string","internalType":"string"}],"stateMutability":"pure"},{"type":"event","name":"ApprovalForAll","inputs":[{"name":"account","type":"address","indexed":true,"internalType":"address"},{"name":"operator","type":"address","indexed":true,"internalType":"address"},{"name":"approved","type":"bool","indexed":false,"internalType":"bool"}],"anonymous":false},{"type":"event","name":"Down","inputs":[{"name":"from","type":"address","indexed":true,"internalType":"address"},{"name":"to","type":"address","indexed":true,"internalType":"address"}],"anonymous":false},{"type":"event","name":"ItemFound","inputs":[{"name":"item","type":"address","indexed":true,"internalType":"address"},{"name":"hash","type":"address","indexed":false,"internalType":"address"},{"name":"owner","type":"address","indexed":true,"internalType":"address"},{"name":"finder","type":"address","indexed":true,"internalType":"address"}],"anonymous":false},{"type":"event","name":"ItemLost","inputs":[{"name":"item","type":"address","indexed":true,"internalType":"address"},{"name":"hash","type":"address","indexed":false,"internalType":"address"},{"name":"owner","type":"address","indexed":true,"internalType":"address"},{"name":"rewardAmount","type":"uint256","indexed":true,"internalType":"uint256"},{"name":"geoLocation","type":"string","indexed":false,"internalType":"string"}],"anonymous":false},{"type":"event","name":"ItemRegistered","inputs":[{"name":"item","type":"address","indexed":true,"internalType":"address"},{"name":"hash","type":"address","indexed":false,"internalType":"address"},{"name":"owner","type":"address","indexed":true,"internalType":"address"}],"anonymous":false},{"type":"event","name":"ItemReturned","inputs":[{"name":"item","type":"address","indexed":true,"internalType":"address"},{"name":"hash","type":"address","indexed":false,"internalType":"address"},{"name":"owner","type":"address","indexed":true,"internalType":"address"}],"anonymous":false},{"type":"event","name":"OwnershipTransferred","inputs":[{"name":"previousOwner","type":"address","indexed":true,"internalType":"address"},{"name":"newOwner","type":"address","indexed":true,"internalType":"address"}],"anonymous":false},{"type":"event","name":"TransferBatch","inputs":[{"name":"operator","type":"address","indexed":true,"internalType":"address"},{"name":"from","type":"address","indexed":true,"internalType":"address"},{"name":"to","type":"address","indexed":true,"internalType":"address"},{"name":"ids","type":"uint256[]","indexed":false,"internalType":"uint256[]"},{"name":"values","type":"uint256[]","indexed":false,"internalType":"uint256[]"}],"anonymous":false},{"type":"event","name":"TransferSingle","inputs":[{"name":"operator","type":"address","indexed":true,"internalType":"address"},{"name":"from","type":"address","indexed":true,"internalType":"address"},{"name":"to","type":"address","indexed":true,"internalType":"address"},{"name":"id","type":"uint256","indexed":false,"internalType":"uint256"},{"name":"value","type":"uint256","indexed":false,"internalType":"uint256"}],"anonymous":false},{"type":"event","name":"URI","inputs":[{"name":"value","type":"string","indexed":false,"internalType":"string"},{"name":"id","type":"uint256","indexed":true,"internalType":"uint256"}],"anonymous":false},{"type":"event","name":"Up","inputs":[{"name":"from","type":"address","indexed":true,"internalType":"address"},{"name":"to","type":"address","indexed":true,"internalType":"address"}],"anonymous":false},{"type":"error","name":"ERC1155InsufficientBalance","inputs":[{"name":"sender","type":"address","internalType":"address"},{"name":"balance","type":"uint256","internalType":"uint256"},{"name":"needed","type":"uint256","internalType":"uint256"},{"name":"tokenId","type":"uint256","internalType":"uint256"}]},{"type":"error","name":"ERC1155InvalidApprover","inputs":[{"name":"approver","type":"address","internalType":"address"}]},{"type":"error","name":"ERC1155InvalidArrayLength","inputs":[{"name":"idsLength","type":"uint256","internalType":"uint256"},{"name":"valuesLength","type":"uint256","internalType":"uint256"}]},{"type":"error","name":"ERC1155InvalidOperator","inputs":[{"name":"operator","type":"address","internalType":"address"}]},{"type":"error","name":"ERC1155InvalidReceiver","inputs":[{"name":"receiver","type":"address","internalType":"address"}]},{"type":"error","name":"ERC1155InvalidSender","inputs":[{"name":"sender","type":"address","internalType":"address"}]},{"type":"error","name":"ERC1155MissingApprovalForAll","inputs":[{"name":"operator","type":"address","internalType":"address"},{"name":"owner","type":"address","internalType":"address"}]},{"type":"error","name":"FailedDeployment","inputs":[]},{"type":"error","name":"InsufficientBalance","inputs":[{"name":"balance","type":"uint256","internalType":"uint256"},{"name":"needed","type":"uint256","internalType":"uint256"}]},{"type":"error","name":"OwnableInvalidOwner","inputs":[{"name":"owner","type":"address","internalType":"address"}]},{"type":"error","name":"OwnableUnauthorizedAccount","inputs":[{"name":"account","type":"address","internalType":"address"}]},{"type":"error","name":"ReentrancyGuardReentrantCall","inputs":[]}],"bytecode":{"object":"0x60c060405234801561000f575f5ffd5b5060405161408038038061408083398101604081905261002e9161019a565b60408051602081019091525f815233906100478161012c565b506001600160a01b03811661007657604051631e4fbdf760e01b81525f60048201526024015b60405180910390fd5b61007f8161013c565b5060016007556001600160a01b0381166100e75760405162461bcd60e51b815260206004820152602360248201527f52657761726420746f6b656e20616464726573732063616e6e6f74206265207a60448201526265726f60e81b606482015260840161006d565b6001600160a01b03811660a0526040516101009061018d565b604051809103905ff080158015610119573d5f5f3e3d5ffd5b506001600160a01b031660805250610319565b6002610138828261025f565b5050565b600680546001600160a01b038381166001600160a01b0319831681179093556040519116919082907f8be0079c531659141344cd1fd0a4f28419497f9722a3daafe3b4186f6b6457e0905f90a35050565b610fbc806130c483390190565b5f602082840312156101aa575f5ffd5b81516001600160a01b03811681146101c0575f5ffd5b9392505050565b634e487b7160e01b5f52604160045260245ffd5b600181811c908216806101ef57607f821691505b60208210810361020d57634e487b7160e01b5f52602260045260245ffd5b50919050565b601f82111561025a57805f5260205f20601f840160051c810160208510156102385750805b601f840160051c820191505b81811015610257575f8155600101610244565b50505b505050565b81516001600160401b03811115610278576102786101c7565b61028c8161028684546101db565b84610213565b6020601f8211600181146102be575f83156102a75750848201515b5f19600385901b1c1916600184901b178455610257565b5f84815260208120601f198516915b828110156102ed57878501518255602094850194600190920191016102cd565b508482101561030a57868401515f19600387901b60f8161c191681555b50505050600190811b01905550565b60805160a051612d7561034f5f395f818161044e015281816108b501526111e101525f8181610349015261118b0152612d755ff3fe608060405234801561000f575f5ffd5b50600436106101d0575f3560e01c80639c1454d4116100fe578063dad3acbf1161009e578063f242432a1161006e578063f242432a14610410578063f2fde38b14610423578063f59ffa6314610436578063f7c618c114610449575f5ffd5b8063dad3acbf146103d8578063db4060be146103eb578063e2c03ace146103f4578063e985e9c5146103fd575f5ffd5b8063bceff29d116100d9578063bceff29d1461036b578063bd85b0391461037e578063beb0ed541461039d578063d321411c146103b0575f5ffd5b80639c1454d414610328578063a22cb46514610331578063ad1ad8eb14610344575f5ffd5b80634e1273f4116101745780638114e41a116101445780638114e41a146102de5780638a22b0b1146102e75780638b1a4954146102f05780638da5cb5b14610303575f5ffd5b80634e1273f41461028c5780634f558e79146102ac578063537b8467146102cd578063715018a6146102d6575f5ffd5b806318160ddd116101af57806318160ddd1461023d578063267ed5bf146102455780632eb2c2d61461025a5780634637d8271461026d575f5ffd5b8062fdd58e146101d457806301ffc9a7146101fa5780630e89341c1461021d575b5f5ffd5b6101e76101e2366004612302565b610470565b6040519081526020015b60405180910390f35b61020d610208366004612341565b610497565b60405190151581526020016101f1565b61023061022b36600461235c565b6104e6565b6040516101f191906123a1565b6004546101e7565b6102586102533660046123b3565b610560565b005b610258610268366004612509565b610617565b6101e761027b3660046123b3565b60056020525f908152604090205481565b61029f61029a3660046125b9565b61068d565b6040516101f191906126b6565b61020d6102ba36600461235c565b5f90815260036020526040902054151590565b6101e7600a5481565b610258610757565b6101e7600c5481565b6101e7600b5481565b6102586102fe36600461270c565b61076a565b6006546001600160a01b03165b6040516001600160a01b0390911681526020016101f1565b6101e7600e5481565b61025861033f366004612770565b610a6d565b6103107f000000000000000000000000000000000000000000000000000000000000000081565b6102586103793660046123b3565b610a7c565b6101e761038c36600461235c565b5f9081526003602052604090205490565b6102586103ab3660046123b3565b610b4d565b6103106103be3660046123b3565b60086020525f90815260409020546001600160a01b031681565b6102586103e63660046127a7565b610e35565b6101e7600d5481565b6101e760095481565b61020d61040b3660046127f7565b610ff4565b61025861041e366004612823565b611021565b6102586104313660046123b3565b611090565b6102586104443660046127a7565b6110ca565b6103107f000000000000000000000000000000000000000000000000000000000000000081565b5f818152602081815260408083206001600160a01b03861684529091529020545b92915050565b5f6001600160e01b03198216636cdb3d1360e11b14806104c757506001600160e01b031982166303a24d0760e21b145b8061049157506301ffc9a760e01b6001600160e01b0319831614610491565b60605f6104f2836112f8565b9150505f8151111561055a576105388161051361050e866114f4565b611534565b604051602001610524929190612891565b604051602081830303815290604052611534565b6040516020016105489190612946565b60405160208183030381529060405291505b50919050565b5f61056c336005610470565b116105b65760405162461bcd60e51b815260206004820152601560248201527424b739bab33334b1b4b2b73a102aa8103a37b5b2b760591b60448201526064015b60405180910390fd5b6105c3336005600161155a565b6105df816005600160405180602001604052805f8152506115c0565b6040516001600160a01b0382169033907f230d68fc383f6b7b814a0072f261d7f83c85006329a5172ab6dec58ab0f84594905f90a350565b6001600160a01b038516158061063457506001600160a01b038416155b6106795760405162461bcd60e51b81526020600482015260166024820152752737b716ba3930b739b332b930b13632903a37b5b2b760511b60448201526064016105ad565b6106868585858585611659565b5050505050565b606081518351146106be5781518351604051635b05999160e01b8152600481019290925260248201526044016105ad565b5f83516001600160401b038111156106d8576106d86123ce565b604051908082528060200260200182016040528015610701578160200160208202803683370190505b5090505f5b845181101561074f5760208082028601015161072a90602080840287010151610470565b82828151811061073c5761073c612977565b6020908102919091010152600101610706565b509392505050565b61075f6116c0565b6107685f6116ed565b565b61077261173e565b5f61077c85611768565b9050336001600160a01b0316816001600160a01b0316638da5cb5b6040518163ffffffff1660e01b8152600401602060405180830381865afa1580156107c4573d5f5f3e3d5ffd5b505050506040513d601f19601f820116820180604052508101906107e8919061298b565b6001600160a01b03161461082e5760405162461bcd60e51b815260206004820152600d60248201526c2737ba103a34329037bbb732b960991b60448201526064016105ad565b5f84116108895760405162461bcd60e51b8152602060048201526024808201527f52657761726420616d6f756e74206d75737420626520677265617465722074686044820152630616e20360e41b60648201526084016105ad565b6040516323b872dd60e01b81523360048201526001600160a01b038281166024830152604482018690527f000000000000000000000000000000000000000000000000000000000000000016906323b872dd906064016020604051808303815f875af11580156108fb573d5f5f3e3d5ffd5b505050506040513d601f19601f8201168201806040525081019061091f91906129a6565b50604051630cf0858760e31b81526001600160a01b038216906367842c3890610950908790879087906004016129e9565b5f604051808303815f87803b158015610967575f5ffd5b505af1158015610979573d5f5f3e3d5ffd5b505050506109f8816001600160a01b0316638da5cb5b6040518163ffffffff1660e01b8152600401602060405180830381865afa1580156109bc573d5f5f3e3d5ffd5b505050506040513d601f19601f820116820180604052508101906109e0919061298b565b6002600160405180602001604052805f8152506117e4565b600b8054905f610a0783612a1f565b919050555083336001600160a01b0316826001600160a01b03167fa68ac6aecb1d2ab397f8f8a79776bd85272dce3fb2a29f145299dfc7cf12b23e888787604051610a5493929190612a37565b60405180910390a450610a676001600755565b50505050565b610a7833838361183f565b5050565b5f610a88336005610470565b11610acd5760405162461bcd60e51b815260206004820152601560248201527424b739bab33334b1b4b2b73a102aa8103a37b5b2b760591b60448201526064016105ad565b610ada336005600161155a565b610af6816006600160405180602001604052805f8152506115c0565b5f610b02826005610470565b1115610b1557610b15816005600161155a565b6040516001600160a01b0382169033907fc3b0b1f3a13dcda569c044b6409fc94488d1b1022109f0390e232041deb96cc8905f90a350565b610b5561173e565b5f610b5f82611768565b9050336001600160a01b0316816001600160a01b0316638da5cb5b6040518163ffffffff1660e01b8152600401602060405180830381865afa158015610ba7573d5f5f3e3d5ffd5b505050506040513d601f19601f82011682018060405250810190610bcb919061298b565b6001600160a01b031614610c115760405162461bcd60e51b815260206004820152600d60248201526c2737ba103a34329037bbb732b960991b60448201526064016105ad565b806001600160a01b0316636cb764086040518163ffffffff1660e01b81526004015f604051808303815f87803b158015610c49575f5ffd5b505af1158015610c5b573d5f5f3e3d5ffd5b50505050610cda816001600160a01b031663b9a3c84c6040518163ffffffff1660e01b8152600401602060405180830381865afa158015610c9e573d5f5f3e3d5ffd5b505050506040513d601f19601f82011682018060405250810190610cc2919061298b565b6004600160405180602001604052805f8152506117e4565b610d55816001600160a01b0316638da5cb5b6040518163ffffffff1660e01b8152600401602060405180830381865afa158015610d19573d5f5f3e3d5ffd5b505050506040513d601f19601f82011682018060405250810190610d3d919061298b565b6005600160405180602001604052805f8152506115c0565b610dd0816001600160a01b031663b9a3c84c6040518163ffffffff1660e01b8152600401602060405180830381865afa158015610d94573d5f5f3e3d5ffd5b505050506040513d601f19601f82011682018060405250810190610db8919061298b565b6005600260405180602001604052805f8152506115c0565b600d8054905f610ddf83612a1f565b90915550506040516001600160a01b0383811682523391908316907ffa2d47173adb7bf410d574a50498dd98484648879599b7ddc8192fed432542de9060200160405180910390a350610e326001600755565b50565b610e3d61173e565b5f610e4784611768565b60405163dad3acbf60e01b81529091506001600160a01b0382169063dad3acbf90610e7a90339087908790600401612a37565b5f604051808303815f87803b158015610e91575f5ffd5b505af1158015610ea3573d5f5f3e3d5ffd5b50505050610f22816001600160a01b031663b9a3c84c6040518163ffffffff1660e01b8152600401602060405180830381865afa158015610ee6573d5f5f3e3d5ffd5b505050506040513d601f19601f82011682018060405250810190610f0a919061298b565b6003600160405180602001604052805f8152506117e4565b600c8054905f610f3183612a1f565b9190505550336001600160a01b0316816001600160a01b0316638da5cb5b6040518163ffffffff1660e01b8152600401602060405180830381865afa158015610f7c573d5f5f3e3d5ffd5b505050506040513d601f19601f82011682018060405250810190610fa0919061298b565b6040516001600160a01b038781168252918216918416907f94f25b4198427bf35ffe73f1430785db27998364795ca7b00cf3b3132554c4d59060200160405180910390a450610fef6001600755565b505050565b6001600160a01b039182165f90815260016020908152604080832093909416825291909152205460ff1690565b6001600160a01b038516158061103e57506001600160a01b038416155b6110835760405162461bcd60e51b81526020600482015260166024820152752737b716ba3930b739b332b930b13632903a37b5b2b760511b60448201526064016105ad565b61068685858585856118d3565b6110986116c0565b6001600160a01b0381166110c157604051631e4fbdf760e01b81525f60048201526024016105ad565b610e32816116ed565b6110d261173e565b6001600160a01b03831661111f5760405162461bcd60e51b8152602060048201526014602482015273536563726574206861736820697320656d70747960601b60448201526064016105ad565b6001600160a01b038381165f90815260086020526040902054161561117c5760405162461bcd60e51b81526020600482015260136024820152724974656d20616c72656164792065786973747360681b60448201526064016105ad565b335f6111b06001600160a01b037f000000000000000000000000000000000000000000000000000000000000000016611932565b6040516309c26fb160e01b815290915081906001600160a01b038216906309c26fb1906112099086908a908a908a907f000000000000000000000000000000000000000000000000000000000000000090600401612a5b565b5f604051808303815f87803b158015611220575f5ffd5b505af1158015611232573d5f5f3e3d5ffd5b505050506001600160a01b038681165f90815260086020526040812080546001600160a01b03191692851692909217909155600980549161127283612a1f565b91905055506112928360018060405180602001604052805f8152506117e4565b600a8054905f6112a183612a1f565b90915550506040516001600160a01b03878116825280851691908416907fffdafafe5100ddf599d9ad718cde4529380748cf9f9498cbbf2e6f64acb110909060200160405180910390a3505050610fef6001600755565b6060806001830361134c5760405180604001604052806004815260200163784fcc4760e11b8152506040518060400160405280600a815260200169149959da5cdd195c995960b21b81525091509150915091565b6002830361139757604051806040016040528060048152602001633c27e62560e21b81525060405180604001604052806004815260200163131bdcdd60e21b81525091509150915091565b600383036113e35760405180604001604052806004815260200163784fcc4560e11b81525060405180604001604052806005815260200164119bdd5b9960da1b81525091509150915091565b600483036114325760405180604001604052806004815260200163f09f998f60e01b8152506040518060400160405280600881526020016714995d1d5c9b995960c21b81525091509150915091565b600583036114815760405180604001604052806004815260200163f09f918d60e01b8152506040518060400160405280600881526020016705468756d622055760c41b81525091509150915091565b600683036114d25760405180604001604052806004815260200163784fc8c760e11b8152506040518060400160405280600a8152602001692a343ab6b1102237bbb760b11b81525091509150915091565b505060408051602080820183525f808352835191820190935291825292909150565b60605f611500836112f8565b5080519091501561055a5761151661010061193d565b61152161010061193d565b8260405160200161054893929190612aa1565b606061049182604051806060016040528060408152602001612d006040913960016119cc565b6001600160a01b03831661158257604051626a0d4560e21b81525f60048201526024016105ad565b604080516001808252602082018590528183019081526060820184905260a082019092525f6080820181815291929161068691879185908590611b48565b6115cc848484846117e4565b6005830361161f575f6115e0856005610470565b6001600160a01b0386165f9081526005602052604090205490915081111561161d576001600160a01b0385165f9081526005602052604090208190555b505b60068303610a67576001600160a01b0384165f908152600560205260408120805484929061164e908490612bb0565b909155505050505050565b336001600160a01b038616811480159061167a57506116788682610ff4565b155b156116ab5760405163711bec9160e11b81526001600160a01b038083166004830152871660248201526044016105ad565b6116b88686868686611b9b565b505050505050565b6006546001600160a01b031633146107685760405163118cdaa760e01b81523360048201526024016105ad565b600680546001600160a01b038381166001600160a01b0319831681179093556040519116919082907f8be0079c531659141344cd1fd0a4f28419497f9722a3daafe3b4186f6b6457e0905f90a35050565b60026007540361176157604051633ee5aeb560e01b815260040160405180910390fd5b6002600755565b6001600160a01b038181165f908152600860205260408120549091166117c65760405162461bcd60e51b8152602060048201526013602482015272125d195b48191bd95cc81b9bdd08195e1a5cdd606a1b60448201526064016105ad565b506001600160a01b039081165f908152600860205260409020541690565b6001600160a01b03841661180d57604051632bfa23e760e11b81525f60048201526024016105ad565b604080516001808252602082018690528183019081526060820185905260808201909252906116b85f87848487611b48565b6001600160a01b0382166118675760405162ced3e160e81b81525f60048201526024016105ad565b6001600160a01b038381165f81815260016020908152604080832094871680845294825291829020805460ff191686151590811790915591519182527f17307eab39ab6107e8899845ad3d59bd9653f200f220920489ca2b5937696c31910160405180910390a3505050565b336001600160a01b03861681148015906118f457506118f28682610ff4565b155b156119255760405163711bec9160e11b81526001600160a01b038083166004830152871660248201526044016105ad565b6116b88686868686611bf9565b5f610491825f611c85565b60605f61194983611d19565b60010190505f816001600160401b03811115611967576119676123ce565b6040519080825280601f01601f191660200182016040528015611991576020820181803683370190505b5090508181016020015b5f19016f181899199a1a9b1b9c1cb0b131b232b360811b600a86061a8153600a850494508461199b57509392505050565b606083515f036119ea575060408051602081019091525f8152611b41565b5f82611a1a57600385516004611a009190612bd6565b611a0b906002612bed565b611a159190612c00565b611a3f565b600385516002611a2a9190612bed565b611a349190612c00565b611a3f906004612bd6565b90505f816001600160401b03811115611a5a57611a5a6123ce565b6040519080825280601f01601f191660200182016040528015611a84576020820181803683370190505b509050600185016020820187885189016020810180515f82525b82841015611af9576003840193508351603f8160121c168701518653600186019550603f81600c1c168701518653600186019550603f8160061c168701518653600186019550603f8116870151865350600185019450611a9e565b905250508515611b3a57600388510660018114611b1d5760028114611b3057611b38565b603d6001830353603d6002830353611b38565b603d60018303535b505b5090925050505b9392505050565b611b5485858585611df0565b6001600160a01b038416156106865782513390600103611b8d5760208481015190840151611b86838989858589611ed7565b50506116b8565b6116b8818787878787611ff8565b6001600160a01b038416611bc457604051632bfa23e760e11b81525f60048201526024016105ad565b6001600160a01b038516611bec57604051626a0d4560e21b81525f60048201526024016105ad565b6106868585858585611b48565b6001600160a01b038416611c2257604051632bfa23e760e11b81525f60048201526024016105ad565b6001600160a01b038516611c4a57604051626a0d4560e21b81525f60048201526024016105ad565b60408051600180825260208201869052818301908152606082018590526080820190925290611c7c8787848487611b48565b50505050505050565b5f81471015611cb05760405163cf47918160e01b8152476004820152602481018390526044016105ad565b763d602d80600a3d3981f3363d3d373d3d3d363d730000008360601b60e81c175f526e5af43d82803e903d91602b57fd5bf38360781b176020526037600983f090506001600160a01b0381166104915760405163b06ebf3d60e01b815260040160405180910390fd5b5f8072184f03e93ff9f4daa797ed6e38ed64bf6a1f0160401b8310611d575772184f03e93ff9f4daa797ed6e38ed64bf6a1f0160401b830492506040015b6d04ee2d6d415b85acef81000000008310611d83576d04ee2d6d415b85acef8100000000830492506020015b662386f26fc100008310611da157662386f26fc10000830492506010015b6305f5e1008310611db9576305f5e100830492506008015b6127108310611dcd57612710830492506004015b60648310611ddf576064830492506002015b600a83106104915760010192915050565b611dfc848484846120df565b6001600160a01b038416611e79575f805b8351811015611e605760208181028481018201519086018201515f908152600390925260408220805491928392611e45908490612bed565b90915550611e5590508184612bed565b925050600101611e0d565b508060045f828254611e729190612bed565b9091555050505b6001600160a01b038316610a67575f805b8351811015611ec65760208181028481018201519086018201515f90815260039092526040909120805482900390559190910190600101611e8a565b506004805491909103905550505050565b6001600160a01b0384163b156116b85760405163f23a6e6160e01b81526001600160a01b0385169063f23a6e6190611f1b9089908990889088908890600401612c1f565b6020604051808303815f875af1925050508015611f55575060408051601f3d908101601f19168201909252611f5291810190612c63565b60015b611fbc573d808015611f82576040519150601f19603f3d011682016040523d82523d5f602084013e611f87565b606091505b5080515f03611fb457604051632bfa23e760e11b81526001600160a01b03861660048201526024016105ad565b805181602001fd5b6001600160e01b0319811663f23a6e6160e01b14611c7c57604051632bfa23e760e11b81526001600160a01b03861660048201526024016105ad565b6001600160a01b0384163b156116b85760405163bc197c8160e01b81526001600160a01b0385169063bc197c819061203c9089908990889088908890600401612c7e565b6020604051808303815f875af1925050508015612076575060408051601f3d908101601f1916820190925261207391810190612c63565b60015b6120a3573d808015611f82576040519150601f19603f3d011682016040523d82523d5f602084013e611f87565b6001600160e01b0319811663bc197c8160e01b14611c7c57604051632bfa23e760e11b81526001600160a01b03861660048201526024016105ad565b805182511461210e5781518151604051635b05999160e01b8152600481019290925260248201526044016105ad565b335f5b8351811015612210576020818102858101820151908501909101516001600160a01b038816156121c2575f828152602081815260408083206001600160a01b038c1684529091529020548181101561219c576040516303dee4c560e01b81526001600160a01b038a1660048201526024810182905260448101839052606481018490526084016105ad565b5f838152602081815260408083206001600160a01b038d16845290915290209082900390555b6001600160a01b03871615612206575f828152602081815260408083206001600160a01b038b16845290915281208054839290612200908490612bed565b90915550505b5050600101612111565b5082516001036122905760208301515f906020840151909150856001600160a01b0316876001600160a01b0316846001600160a01b03167fc3d58168c5ae7397731d063d5bbf3d657854427343f4c083240f7aacaa2d0f628585604051612281929190918252602082015260400190565b60405180910390a45050610686565b836001600160a01b0316856001600160a01b0316826001600160a01b03167f4a39dc06d4c0dbc64b70af90fd698a233a518aa5d07e595d983b8c0526c8f7fb86866040516122df929190612cdb565b60405180910390a45050505050565b6001600160a01b0381168114610e32575f5ffd5b5f5f60408385031215612313575f5ffd5b823561231e816122ee565b946020939093013593505050565b6001600160e01b031981168114610e32575f5ffd5b5f60208284031215612351575f5ffd5b8135611b418161232c565b5f6020828403121561236c575f5ffd5b5035919050565b5f81518084528060208401602086015e5f602082860101526020601f19601f83011685010191505092915050565b602081525f611b416020830184612373565b5f602082840312156123c3575f5ffd5b8135611b41816122ee565b634e487b7160e01b5f52604160045260245ffd5b604051601f8201601f191681016001600160401b038111828210171561240a5761240a6123ce565b604052919050565b5f6001600160401b0382111561242a5761242a6123ce565b5060051b60200190565b5f82601f830112612443575f5ffd5b813561245661245182612412565b6123e2565b8082825260208201915060208360051b860101925085831115612477575f5ffd5b602085015b8381101561249457803583526020928301920161247c565b5095945050505050565b5f82601f8301126124ad575f5ffd5b81356001600160401b038111156124c6576124c66123ce565b6124d9601f8201601f19166020016123e2565b8181528460208386010111156124ed575f5ffd5b816020850160208301375f918101602001919091529392505050565b5f5f5f5f5f60a0868803121561251d575f5ffd5b8535612528816122ee565b94506020860135612538816122ee565b935060408601356001600160401b03811115612552575f5ffd5b61255e88828901612434565b93505060608601356001600160401b03811115612579575f5ffd5b61258588828901612434565b92505060808601356001600160401b038111156125a0575f5ffd5b6125ac8882890161249e565b9150509295509295909350565b5f5f604083850312156125ca575f5ffd5b82356001600160401b038111156125df575f5ffd5b8301601f810185136125ef575f5ffd5b80356125fd61245182612412565b8082825260208201915060208360051b85010192508783111561261e575f5ffd5b6020840193505b82841015612649578335612638816122ee565b825260209384019390910190612625565b945050505060208301356001600160401b03811115612666575f5ffd5b61267285828601612434565b9150509250929050565b5f8151808452602084019350602083015f5b828110156126ac57815186526020958601959091019060010161268e565b5093949350505050565b602081525f611b41602083018461267c565b5f5f83601f8401126126d8575f5ffd5b5081356001600160401b038111156126ee575f5ffd5b602083019150836020828501011115612705575f5ffd5b9250929050565b5f5f5f5f6060858703121561271f575f5ffd5b843561272a816122ee565b93506020850135925060408501356001600160401b0381111561274b575f5ffd5b612757878288016126c8565b95989497509550505050565b8015158114610e32575f5ffd5b5f5f60408385031215612781575f5ffd5b823561278c816122ee565b9150602083013561279c81612763565b809150509250929050565b5f5f5f604084860312156127b9575f5ffd5b83356127c4816122ee565b925060208401356001600160401b038111156127de575f5ffd5b6127ea868287016126c8565b9497909650939450505050565b5f5f60408385031215612808575f5ffd5b8235612813816122ee565b9150602083013561279c816122ee565b5f5f5f5f5f60a08688031215612837575f5ffd5b8535612842816122ee565b94506020860135612852816122ee565b9350604086013592506060860135915060808601356001600160401b038111156125a0575f5ffd5b5f81518060208401855e5f93019283525090919050565b607b60f81b81526a1010113730b6b2911d101160a91b60018201525f6128ba600c83018561287a565b601160f91b81527f2c20226465736372697074696f6e223a2022687474703a2f2f6c61662e69732260018201527f2c2022696d616765223a2022646174613a696d6167652f7376672b786d6c3b62602182015265185cd94d8d0b60d21b6041820152612929604782018561287a565b601160f91b8152607d60f81b600182015260020195945050505050565b7f646174613a6170706c69636174696f6e2f6a736f6e3b6261736536342c00000081525f611b41601d83018461287a565b634e487b7160e01b5f52603260045260245ffd5b5f6020828403121561299b575f5ffd5b8151611b41816122ee565b5f602082840312156129b6575f5ffd5b8151611b4181612763565b81835281816020850137505f828201602090810191909152601f909101601f19169091010190565b838152604060208201525f612a026040830184866129c1565b95945050505050565b634e487b7160e01b5f52601160045260245ffd5b5f60018201612a3057612a30612a0b565b5060010190565b6001600160a01b03841681526040602082018190525f90612a0290830184866129c1565b6001600160a01b038681168252851660208201526080604082018190525f90612a8790830185876129c1565b905060018060a01b03831660608301529695505050505050565b7f3c73766720786d6c6e733d22687474703a2f2f7777772e77332e6f72672f323081526e181817b9bb3391103bb4b23a341e9160891b60208201525f612aea602f83018661287a565b6911103432b4b3b43a1e9160b11b8152612b07600a82018661287a565b61111f60f11b81527f3c7465787420783d223530252220793d223630252220746578742d616e63686f60028201527f723d226d6964646c652220666f6e742d73697a653d2236342220666f6e742d6660228201527f616d696c793d22456d6f6a69466f6e742c2073616e732d7365726966223e000060428201529050612b90606082018561287a565b6c1e17ba32bc3a1f1e17b9bb339f60991b8152600d019695505050505050565b8181035f831280158383131683831282161715612bcf57612bcf612a0b565b5092915050565b808202811582820484141761049157610491612a0b565b8082018082111561049157610491612a0b565b5f82612c1a57634e487b7160e01b5f52601260045260245ffd5b500490565b6001600160a01b03868116825285166020820152604081018490526060810183905260a0608082018190525f90612c5890830184612373565b979650505050505050565b5f60208284031215612c73575f5ffd5b8151611b418161232c565b6001600160a01b0386811682528516602082015260a0604082018190525f90612ca99083018661267c565b8281036060840152612cbb818661267c565b90508281036080840152612ccf8185612373565b98975050505050505050565b604081525f612ced604083018561267c565b8281036020840152612a02818561267c56fe4142434445464748494a4b4c4d4e4f505152535455565758595a6162636465666768696a6b6c6d6e6f707172737475767778797a303132333435363738392b2fa2646970667358221220b5a78d4e9dc867914746fb4128b33c7784fd3d8cabeed9b149ef20a45a01578664736f6c634300081c003360a060405234801561000f575f5ffd5b503360805261001c610021565b6100d3565b7ff0c57e16840df040f15088dc2f81fe391c3923bec73e23a9662efc9c229c6a00805468010000000000000000900460ff16156100715760405163f92ee8a960e01b815260040160405180910390fd5b80546001600160401b03908116146100d05780546001600160401b0319166001600160401b0390811782556040519081527fc7f505b2f371ae2175ee4913f4499e1f2633a7b5936321eed1cdaeb6115181d29060200160405180910390a15b50565b608051610eb56101075f395f81816101b9015281816102f30152818161042d0152818161052301526107e90152610eb55ff3fe608060405234801561000f575f5ffd5b50600436106100fb575f3560e01c8063c45a015511610093578063d944e6a311610063578063d944e6a314610209578063dad3acbf1461021e578063e6f9b4ac14610231578063f4f3c8a41461023e575f5ffd5b8063c45a0155146101b4578063cddb94b2146101db578063d1419c75146101e3578063d29e6803146101f6575f5ffd5b80636cb76408116100ce5780636cb764081461014d5780636e773e9c146101555780638da5cb5b14610177578063b9a3c84c146101a1575f5ffd5b806309c26fb1146100ff578063228cb73314610114578063483fb4bf1461013057806367842c381461013a575b5f5ffd5b61011261010d366004610b38565b610246565b005b61011d60045481565b6040519081526020015b60405180910390f35b61011d620f424081565b610112610148366004610ba9565b610422565b610112610518565b60065461016790610100900460ff1681565b6040519015158152602001610127565b5f54610189906001600160a01b031681565b6040516001600160a01b039091168152602001610127565b600354610189906001600160a01b031681565b6101897f000000000000000000000000000000000000000000000000000000000000000081565b61011d600181565b6006546101679062010000900460ff1681565b600154610189906001600160a01b031681565b610211610752565b6040516101279190610bf1565b61011261022c366004610c26565b6107de565b6006546101679060ff1681565b610211610aa1565b5f61024f610aae565b805490915060ff600160401b820416159067ffffffffffffffff165f811580156102765750825b90505f8267ffffffffffffffff1660011480156102925750303b155b9050811580156102a0575080155b156102be5760405163f92ee8a960e01b815260040160405180910390fd5b845467ffffffffffffffff1916600117855583156102e857845460ff60401b1916600160401b1785555b336001600160a01b037f000000000000000000000000000000000000000000000000000000000000000016146103655760405162461bcd60e51b815260206004820152601b60248201527f4f6e6c7920666163746f72792063616e20696e697469616c697a65000000000060448201526064015b60405180910390fd5b5f80546001600160a01b0319166001600160a01b038c16179055600261038c888a83610cf4565b50600180546001600160a01b0319166001600160a01b038b811691909117909155600680546301000000600160b81b031916630100000092891692909202919091179055831561041657845460ff60401b19168555604051600181527fc7f505b2f371ae2175ee4913f4499e1f2633a7b5936321eed1cdaeb6115181d29060200160405180910390a15b50505050505050505050565b336001600160a01b037f0000000000000000000000000000000000000000000000000000000000000000161461046a5760405162461bcd60e51b815260040161035c90610dae565b60065460ff16156104ac5760405162461bcd60e51b815260206004820152600c60248201526b105b1c9958591e481b1bdcdd60a21b604482015260640161035c565b620f42408310156104f35760405162461bcd60e51b815260206004820152601160248201527052657761726420697320746f6f206c6f7760781b604482015260640161035c565b60048390556005610505828483610cf4565b50506006805460ff191660011790555050565b336001600160a01b037f000000000000000000000000000000000000000000000000000000000000000016146105605760405162461bcd60e51b815260040161035c90610dae565b60065462010000900460ff16156105ac5760405162461bcd60e51b815260206004820152601060248201526f105b1c9958591e481c995d1d5c9b995960821b604482015260640161035c565b600654610100900460ff166105ef5760405162461bcd60e51b8152602060048201526009602482015268139bdd08199bdd5b9960ba1b604482015260640161035c565b6006546040516370a0823160e01b815230600482015263010000009091046001600160a01b0316905f9082906370a0823190602401602060405180830381865afa15801561063f573d5f5f3e3d5ffd5b505050506040513d601f19601f820116820180604052508101906106639190610df1565b6003549091506001600160a01b03161580159061067f57505f81115b1561073d5760035460405163a9059cbb60e01b81526001600160a01b039182166004820152602481018390529083169063a9059cbb906044016020604051808303815f875af11580156106d4573d5f5f3e3d5ffd5b505050506040513d601f19601f820116820180604052508101906106f89190610e08565b61073d5760405162461bcd60e51b815260206004820152601660248201527514995dd85c99081d1c985b9cd9995c8819985a5b195960521b604482015260640161035c565b50506006805462ff0000191662010000179055565b6005805461075f90610c70565b80601f016020809104026020016040519081016040528092919081815260200182805461078b90610c70565b80156107d65780601f106107ad576101008083540402835291602001916107d6565b820191905f5260205f20905b8154815290600101906020018083116107b957829003601f168201915b505050505081565b336001600160a01b037f000000000000000000000000000000000000000000000000000000000000000016146108265760405162461bcd60e51b815260040161035c90610dae565b60065460ff166108635760405162461bcd60e51b8152602060048201526008602482015267139bdd081b1bdcdd60c21b604482015260640161035c565b600654610100900460ff16156108ab5760405162461bcd60e51b815260206004820152600d60248201526c105b1c9958591e48199bdd5b99609a1b604482015260640161035c565b5f82826040516108bc929190610e2e565b6040519081900390206001549091506001600160a01b038083169116146109165760405162461bcd60e51b815260206004820152600e60248201526d125b9d985b1a59081cd958dc995d60921b604482015260640161035c565b600380546001600160a01b0319166001600160a01b03868116919091179091556006546040516370a0823160e01b81523060048201526301000000909104909116905f9082906370a0823190602401602060405180830381865afa158015610980573d5f5f3e3d5ffd5b505050506040513d601f19601f820116820180604052508101906109a49190610df1565b90508015610a8a575f60646109ba600184610e3d565b6109c49190610e60565b90508015610a885760405163a9059cbb60e01b81526001600160a01b0388811660048301526024820183905284169063a9059cbb906044016020604051808303815f875af1158015610a18573d5f5f3e3d5ffd5b505050506040513d601f19601f82011682018060405250810190610a3c9190610e08565b610a885760405162461bcd60e51b815260206004820181905260248201527f496d6d65646961746520726577617264207472616e73666572206661696c6564604482015260640161035c565b505b50506006805461ff00191661010017905550505050565b6002805461075f90610c70565b5f807ff0c57e16840df040f15088dc2f81fe391c3923bec73e23a9662efc9c229c6a005b92915050565b80356001600160a01b0381168114610aee575f5ffd5b919050565b5f5f83601f840112610b03575f5ffd5b50813567ffffffffffffffff811115610b1a575f5ffd5b602083019150836020828501011115610b31575f5ffd5b9250929050565b5f5f5f5f5f60808688031215610b4c575f5ffd5b610b5586610ad8565b9450610b6360208701610ad8565b9350604086013567ffffffffffffffff811115610b7e575f5ffd5b610b8a88828901610af3565b9094509250610b9d905060608701610ad8565b90509295509295909350565b5f5f5f60408486031215610bbb575f5ffd5b83359250602084013567ffffffffffffffff811115610bd8575f5ffd5b610be486828701610af3565b9497909650939450505050565b602081525f82518060208401528060208501604085015e5f604082850101526040601f19601f83011684010191505092915050565b5f5f5f60408486031215610c38575f5ffd5b610c4184610ad8565b9250602084013567ffffffffffffffff811115610bd8575f5ffd5b634e487b7160e01b5f52604160045260245ffd5b600181811c90821680610c8457607f821691505b602082108103610ca257634e487b7160e01b5f52602260045260245ffd5b50919050565b601f821115610cef57805f5260205f20601f840160051c81016020851015610ccd5750805b601f840160051c820191505b81811015610cec575f8155600101610cd9565b50505b505050565b67ffffffffffffffff831115610d0c57610d0c610c5c565b610d2083610d1a8354610c70565b83610ca8565b5f601f841160018114610d51575f8515610d3a5750838201355b5f19600387901b1c1916600186901b178355610cec565b5f83815260208120601f198716915b82811015610d805786850135825560209485019460019092019101610d60565b5086821015610d9c575f1960f88860031b161c19848701351681555b505060018560011b0183555050505050565b60208082526023908201527f4f6e6c7920666163746f72792063616e2063616c6c20746869732066756e637460408201526234b7b760e91b606082015260800190565b5f60208284031215610e01575f5ffd5b5051919050565b5f60208284031215610e18575f5ffd5b81518015158114610e27575f5ffd5b9392505050565b818382375f9101908152919050565b8082028115828204841417610ad257634e487b7160e01b5f52601160045260245ffd5b5f82610e7a57634e487b7160e01b5f52601260045260245ffd5b50049056fea2646970667358221220bc116a360d53266271f7641e12f8ee38483fd78a331f0c203bda799f1f2c5df464736f6c634300081c0033","linkReferences":{}},"methodIdentifiers":{"balanceOf(address,uint256)":"00fdd58e","balanceOfBatch(address[],uint256[])":"4e1273f4","exists(uint256)":"4f558e79","found(address,string)":"dad3acbf","foundNumber()":"8114e41a","isApprovedForAll(address,address)":"e985e9c5","itemImplementation()":"ad1ad8eb","items(address)":"d321411c","itemsCount()":"e2c03ace","lost(address,uint256,string)":"8b1a4954","lostNumber()":"8a22b0b1","owner()":"8da5cb5b","registerItem(address,string)":"f59ffa63","registeredNumber()":"537b8467","renounceOwnership()":"715018a6","returned(address)":"beb0ed54","returnedNumber()":"db4060be","rewardToken()":"f7c618c1","rewardsDistributed()":"9c1454d4","safeBatchTransferFrom(address,address,uint256[],uint256[],bytes)":"2eb2c2d6","safeTransferFrom(address,address,uint256,uint256,bytes)":"f242432a","setApprovalForAll(address,bool)":"a22cb465","supportsInterface(bytes4)":"01ffc9a7","thumbDown(address)":"bceff29d","thumbUp(address)":"267ed5bf","totalSupply()":"18160ddd","totalSupply(uint256)":"bd85b039","transferOwnership(address)":"f2fde38b","trust(address)":"4637d827","uri(uint256)":"0e89341c"},"id":44}